{
  "contractName": "HodlSodl",
  "abi": [
    {
      "inputs": [
        {
          "internalType": "uint256",
          "name": "",
          "type": "uint256"
        }
      ],
      "payable": true,
      "stateMutability": "payable",
      "type": "constructor"
    },
    {
      "anonymous": false,
      "inputs": [
        {
          "indexed": false,
          "internalType": "string",
          "name": "name",
          "type": "string"
        },
        {
          "indexed": false,
          "internalType": "address",
          "name": "player",
          "type": "address"
        },
        {
          "indexed": false,
          "internalType": "uint256",
          "name": "betAmount",
          "type": "uint256"
        },
        {
          "indexed": false,
          "internalType": "bool",
          "name": "win",
          "type": "bool"
        }
      ],
      "name": "placedBet",
      "type": "event"
    },
    {
      "anonymous": false,
      "inputs": [
        {
          "indexed": false,
          "internalType": "string",
          "name": "name",
          "type": "string"
        },
        {
          "indexed": false,
          "internalType": "string",
          "name": "email",
          "type": "string"
        }
      ],
      "name": "playerCreated",
      "type": "event"
    },
    {
      "anonymous": false,
      "inputs": [
        {
          "indexed": false,
          "internalType": "string",
          "name": "name",
          "type": "string"
        },
        {
          "indexed": false,
          "internalType": "string",
          "name": "email",
          "type": "string"
        },
        {
          "indexed": false,
          "internalType": "address",
          "name": "deletedBy",
          "type": "address"
        }
      ],
      "name": "playerDeleted",
      "type": "event"
    },
    {
      "constant": true,
      "inputs": [],
      "name": "owner",
      "outputs": [
        {
          "internalType": "address",
          "name": "",
          "type": "address"
        }
      ],
      "payable": false,
      "stateMutability": "view",
      "type": "function"
    },
    {
      "constant": false,
      "inputs": [
        {
          "internalType": "string",
          "name": "name",
          "type": "string"
        },
        {
          "internalType": "uint256",
          "name": "age",
          "type": "uint256"
        },
        {
          "internalType": "string",
          "name": "email",
          "type": "string"
        },
        {
          "internalType": "uint256",
          "name": "pin",
          "type": "uint256"
        },
        {
          "internalType": "uint256",
          "name": "repeatPin",
          "type": "uint256"
        }
      ],
      "name": "createPlayer",
      "outputs": [],
      "payable": true,
      "stateMutability": "payable",
      "type": "function"
    },
    {
      "constant": true,
      "inputs": [],
      "name": "getPlayer",
      "outputs": [
        {
          "internalType": "string",
          "name": "name",
          "type": "string"
        },
        {
          "internalType": "uint256",
          "name": "age",
          "type": "uint256"
        },
        {
          "internalType": "string",
          "name": "email",
          "type": "string"
        }
      ],
      "payable": false,
      "stateMutability": "view",
      "type": "function"
    },
    {
      "constant": false,
      "inputs": [
        {
          "internalType": "address",
          "name": "creator",
          "type": "address"
        }
      ],
      "name": "deletePlayer",
      "outputs": [],
      "payable": false,
      "stateMutability": "nonpayable",
      "type": "function"
    },
    {
      "constant": false,
      "inputs": [],
      "name": "withdrawAll",
      "outputs": [
        {
          "internalType": "uint256",
          "name": "",
          "type": "uint256"
        }
      ],
      "payable": false,
      "stateMutability": "nonpayable",
      "type": "function"
    },
    {
      "constant": true,
      "inputs": [],
      "name": "myLastBet",
      "outputs": [
        {
          "internalType": "string",
          "name": "name",
          "type": "string"
        },
        {
          "internalType": "bool",
          "name": "win",
          "type": "bool"
        },
        {
          "internalType": "uint256",
          "name": "optionChosen",
          "type": "uint256"
        },
        {
          "internalType": "uint256",
          "name": "betAmount",
          "type": "uint256"
        }
      ],
      "payable": false,
      "stateMutability": "view",
      "type": "function"
    },
    {
      "constant": true,
      "inputs": [],
      "name": "myBalance",
      "outputs": [
        {
          "internalType": "string",
          "name": "name",
          "type": "string"
        },
        {
          "internalType": "uint256",
          "name": "playerBalance",
          "type": "uint256"
        }
      ],
      "payable": false,
      "stateMutability": "view",
      "type": "function"
    },
    {
      "constant": false,
      "inputs": [
        {
          "internalType": "uint256",
          "name": "optionBid",
          "type": "uint256"
        }
      ],
      "name": "makeBet",
      "outputs": [],
      "payable": true,
      "stateMutability": "payable",
      "type": "function"
    },
    {
      "constant": false,
      "inputs": [],
      "name": "withdrawPlayer",
      "outputs": [
        {
          "internalType": "uint256",
          "name": "",
          "type": "uint256"
        }
      ],
      "payable": false,
      "stateMutability": "nonpayable",
      "type": "function"
    }
  ],
  "bytecode": "0x6080604052604051611d2c380380611d2c8339818101604052602081101561002657600080fd5b8101908080519060200190929190505050336000806101000a81548173ffffffffffffffffffffffffffffffffffffffff021916908373ffffffffffffffffffffffffffffffffffffffff1602179055503460078190555050611c9e8061008e6000396000f3fe6080604052600436106100865760003560e01c8063853828b611610059578063853828b6146102385780638da5cb5b14610263578063aa6682f5146102ba578063c9116b691461042a578063dd83f1c8146104c157610086565b806312243b671461008b5780633308f42d146100dc5780635b5c7705146101df578063718cc7691461020a575b600080fd5b34801561009757600080fd5b506100da600480360360208110156100ae57600080fd5b81019080803573ffffffffffffffffffffffffffffffffffffffff16906020019092919050505061056a565b005b3480156100e857600080fd5b506100f1610991565b604051808060200184815260200180602001838103835286818151815260200191508051906020019080838360005b8381101561013b578082015181840152602081019050610120565b50505050905090810190601f1680156101685780820380516001836020036101000a031916815260200191505b50838103825284818151815260200191508051906020019080838360005b838110156101a1578082015181840152602081019050610186565b50505050905090810190601f1680156101ce5780820380516001836020036101000a031916815260200191505b509550505050505060405180910390f35b3480156101eb57600080fd5b506101f4610ba7565b6040518082815260200191505060405180910390f35b6102366004803603602081101561022057600080fd5b8101908080359060200190929190505050610c85565b005b34801561024457600080fd5b5061024d610ede565b6040518082815260200191505060405180910390f35b34801561026f57600080fd5b50610278610f96565b604051808273ffffffffffffffffffffffffffffffffffffffff1673ffffffffffffffffffffffffffffffffffffffff16815260200191505060405180910390f35b610428600480360360a08110156102d057600080fd5b81019080803590602001906401000000008111156102ed57600080fd5b8201836020820111156102ff57600080fd5b8035906020019184600183028401116401000000008311171561032157600080fd5b91908080601f016020809104026020016040519081016040528093929190818152602001838380828437600081840152601f19601f820116905080830192505050505050509192919290803590602001909291908035906020019064010000000081111561038e57600080fd5b8201836020820111156103a057600080fd5b803590602001918460018302840111640100000000831117156103c257600080fd5b91908080601f016020809104026020016040519081016040528093929190818152602001838380828437600081840152601f19601f8201169050808301925050505050505091929192908035906020019092919080359060200190929190505050610fbb565b005b34801561043657600080fd5b5061043f6114a9565b6040518080602001838152602001828103825284818151815260200191508051906020019080838360005b8381101561048557808201518184015260208101905061046a565b50505050905090810190601f1680156104b25780820380516001836020036101000a031916815260200191505b50935050505060405180910390f35b3480156104cd57600080fd5b506104d66115d6565b604051808060200185151515158152602001848152602001838152602001828103825286818151815260200191508051906020019080838360005b8381101561052c578082015181840152602081019050610511565b50505050905090810190601f1680156105595780820380516001836020036101000a031916815260200191505b509550505050505060405180910390f35b6000809054906101000a900473ffffffffffffffffffffffffffffffffffffffff1673ffffffffffffffffffffffffffffffffffffffff163373ffffffffffffffffffffffffffffffffffffffff16146105c357600080fd5b6060600960008373ffffffffffffffffffffffffffffffffffffffff1673ffffffffffffffffffffffffffffffffffffffff1681526020019081526020016000206001018054600181600116156101000203166002900480601f01602080910402602001604051908101604052809291908181526020018280546001816001161561010002031660029004801561069b5780601f106106705761010080835404028352916020019161069b565b820191906000526020600020905b81548152906001019060200180831161067e57829003601f168201915b505050505090506060600960008473ffffffffffffffffffffffffffffffffffffffff1673ffffffffffffffffffffffffffffffffffffffff1681526020019081526020016000206003018054600181600116156101000203166002900480601f01602080910402602001604051908101604052809291908181526020018280546001816001161561010002031660029004801561077a5780601f1061074f5761010080835404028352916020019161077a565b820191906000526020600020905b81548152906001019060200180831161075d57829003601f168201915b50505050509050600960008473ffffffffffffffffffffffffffffffffffffffff1673ffffffffffffffffffffffffffffffffffffffff1681526020019081526020016000206000808201600090556001820160006107d99190611a38565b60028201600090556003820160006107f19190611a38565b6004820160009055600582016000905550506000600960008573ffffffffffffffffffffffffffffffffffffffff1673ffffffffffffffffffffffffffffffffffffffff168152602001908152602001600020600201541461084f57fe5b7f2a4b00ed47cbf06e66abd3db3355924b5d46cca1837491ae500fe2c0afbd5ffd8282336040518080602001806020018473ffffffffffffffffffffffffffffffffffffffff1673ffffffffffffffffffffffffffffffffffffffff168152602001838103835286818151815260200191508051906020019080838360005b838110156108e95780820151818401526020810190506108ce565b50505050905090810190601f1680156109165780820380516001836020036101000a031916815260200191505b50838103825285818151815260200191508051906020019080838360005b8381101561094f578082015181840152602081019050610934565b50505050905090810190601f16801561097c5780820380516001836020036101000a031916815260200191505b509550505050505060405180910390a1505050565b6060600060606000339050600960008273ffffffffffffffffffffffffffffffffffffffff1673ffffffffffffffffffffffffffffffffffffffff168152602001908152602001600020600101600960008373ffffffffffffffffffffffffffffffffffffffff1673ffffffffffffffffffffffffffffffffffffffff16815260200190815260200160002060020154600960008473ffffffffffffffffffffffffffffffffffffffff1673ffffffffffffffffffffffffffffffffffffffff168152602001908152602001600020600301828054600181600116156101000203166002900480601f016020809104026020016040519081016040528092919081815260200182805460018160011615610100020316600290048015610af85780601f10610acd57610100808354040283529160200191610af8565b820191906000526020600020905b815481529060010190602001808311610adb57829003601f168201915b50505050509250808054600181600116156101000203166002900480601f016020809104026020016040519081016040528092919081815260200182805460018160011615610100020316600290048015610b945780601f10610b6957610100808354040283529160200191610b94565b820191906000526020600020905b815481529060010190602001808311610b7757829003601f168201915b5050505050905093509350935050909192565b600080600860003373ffffffffffffffffffffffffffffffffffffffff1673ffffffffffffffffffffffffffffffffffffffff1681526020019081526020016000206005015490506000600860003373ffffffffffffffffffffffffffffffffffffffff1673ffffffffffffffffffffffffffffffffffffffff168152602001908152602001600020600501819055503373ffffffffffffffffffffffffffffffffffffffff166108fc829081150290604051600060405180830381858888f19350505050158015610c7d573d6000803e3d6000fd5b508091505090565b600754341115610c9457600080fd5b67016345785d8a0000341015610ca957600080fd5b600960003373ffffffffffffffffffffffffffffffffffffffff1673ffffffffffffffffffffffffffffffffffffffff16815260200190815260200160002060010160016000019080546001816001161561010002031660029004610d0f929190611a80565b508060018001819055503460016003018190555033600160040160006101000a81548173ffffffffffffffffffffffffffffffffffffffff021916908373ffffffffffffffffffffffffffffffffffffffff160217905550600860003373ffffffffffffffffffffffffffffffffffffffff1673ffffffffffffffffffffffffffffffffffffffff16815260200190815260200160002060050154600160050181905550610dbc8161179f565b506001600860003373ffffffffffffffffffffffffffffffffffffffff1673ffffffffffffffffffffffffffffffffffffffff16815260200190815260200160002060008201816000019080546001816001161561010002031660029004610e25929190611b07565b50600182015481600101556002820160009054906101000a900460ff168160020160006101000a81548160ff021916908315150217905550600382015481600301556004820160009054906101000a900473ffffffffffffffffffffffffffffffffffffffff168160040160006101000a81548173ffffffffffffffffffffffffffffffffffffffff021916908373ffffffffffffffffffffffffffffffffffffffff1602179055506005820154816005015590505050565b60008060009054906101000a900473ffffffffffffffffffffffffffffffffffffffff1673ffffffffffffffffffffffffffffffffffffffff163373ffffffffffffffffffffffffffffffffffffffff1614610f3957600080fd5b6000600754905060006007819055503373ffffffffffffffffffffffffffffffffffffffff166108fc829081150290604051600060405180830381858888f19350505050158015610f8e573d6000803e3d6000fd5b508091505090565b6000809054906101000a900473ffffffffffffffffffffffffffffffffffffffff1681565b670de0b6b3a764000080341015610fd157600080fd5b60648510611047576040517f08c379a00000000000000000000000000000000000000000000000000000000081526004018080602001828103825260198152602001807f416765206e6565647320746f2062652062656c6f77203130300000000000000081525060200191505060405180910390fd5b8183146110bc576040517f08c379a00000000000000000000000000000000000000000000000000000000081526004018080602001828103825260138152602001807f72657065617450696e206e6f7420657175616c0000000000000000000000000081525060200191505060405180910390fd5b670de0b6b3a76400003410156110d157600080fd5b346007600082825401925050819055506110e9611b8e565b8681602001819052508581604001818152505084816060018190525061110e8161198a565b8060200151816040015182606001516040516020018084805190602001908083835b602083106111535780518252602082019150602081019050602083039250611130565b6001836020036101000a03801982511681845116808217855250505050505090500183815260200182805190602001908083835b602083106111aa5780518252602082019150602081019050602083039250611187565b6001836020036101000a038019825116818451168082178552505050505050905001935050505060405160208183030381529060405280519060200120600960003373ffffffffffffffffffffffffffffffffffffffff1673ffffffffffffffffffffffffffffffffffffffff168152602001908152602001600020600101600960003373ffffffffffffffffffffffffffffffffffffffff1673ffffffffffffffffffffffffffffffffffffffff16815260200190815260200160002060020154600960003373ffffffffffffffffffffffffffffffffffffffff1673ffffffffffffffffffffffffffffffffffffffff168152602001908152602001600020600301604051602001808480546001816001161561010002031660029004801561130c5780601f106112ea57610100808354040283529182019161130c565b820191906000526020600020905b8154815290600101906020018083116112f8575b50508381526020018280546001816001161561010002031660029004801561136b5780601f1061134957610100808354040283529182019161136b565b820191906000526020600020905b815481529060010190602001808311611357575b50509350505050604051602081830303815290604052805190602001201461138f57fe5b7fb4cdd750b861ca2c84100f2e946a6554eddb4a6d8d5c7e0afcda50b54a5ca44281602001518260600151604051808060200180602001838103835285818151815260200191508051906020019080838360005b838110156113fe5780820151818401526020810190506113e3565b50505050905090810190601f16801561142b5780820380516001836020036101000a031916815260200191505b50838103825284818151815260200191508051906020019080838360005b83811015611464578082015181840152602081019050611449565b50505050905090810190601f1680156114915780820380516001836020036101000a031916815260200191505b5094505050505060405180910390a150505050505050565b60606000600860003373ffffffffffffffffffffffffffffffffffffffff1673ffffffffffffffffffffffffffffffffffffffff168152602001908152602001600020600001600860003373ffffffffffffffffffffffffffffffffffffffff1673ffffffffffffffffffffffffffffffffffffffff16815260200190815260200160002060050154818054600181600116156101000203166002900480601f0160208091040260200160405190810160405280929190818152602001828054600181600116156101000203166002900480156115c75780601f1061159c576101008083540402835291602001916115c7565b820191906000526020600020905b8154815290600101906020018083116115aa57829003601f168201915b50505050509150915091509091565b60606000806000600860003373ffffffffffffffffffffffffffffffffffffffff1673ffffffffffffffffffffffffffffffffffffffff168152602001908152602001600020600001600860003373ffffffffffffffffffffffffffffffffffffffff1673ffffffffffffffffffffffffffffffffffffffff16815260200190815260200160002060020160009054906101000a900460ff16600860003373ffffffffffffffffffffffffffffffffffffffff1673ffffffffffffffffffffffffffffffffffffffff16815260200190815260200160002060010154600860003373ffffffffffffffffffffffffffffffffffffffff1673ffffffffffffffffffffffffffffffffffffffff16815260200190815260200160002060030154838054600181600116156101000203166002900480601f01602080910402602001604051908101604052809291908181526020018280546001816001161561010002031660029004801561178a5780601f1061175f5761010080835404028352916020019161178a565b820191906000526020600020905b81548152906001019060200180831161176d57829003601f168201915b50505050509350935093509350935090919293565b600080600242816117ac57fe5b069050828114156118045760018060020160006101000a81548160ff02191690831515021790555060016003015460075403600781905550600260016003015402600160050160008282540192505081905550611833565b6000600160020160006101000a81548160ff021916908315150217905550600160030154600754016007819055505b7f6700f0398c8dda10f7b2980cf4804979115d011582bcfd4965d06a39b2be92f96001600001600160040160009054906101000a900473ffffffffffffffffffffffffffffffffffffffff1634600160020160009054906101000a900460ff1660405180806020018573ffffffffffffffffffffffffffffffffffffffff1673ffffffffffffffffffffffffffffffffffffffff1681526020018481526020018315151515815260200182810382528681815460018160011615610100020316600290048152602001915080546001816001161561010002031660029004801561195e5780601f106119335761010080835404028352916020019161195e565b820191906000526020600020905b81548152906001019060200180831161194157829003601f168201915b50509550505050505060405180910390a1600160020160009054906101000a900460ff16915050919050565b600033905081600960008373ffffffffffffffffffffffffffffffffffffffff1673ffffffffffffffffffffffffffffffffffffffff1681526020019081526020016000206000820151816000015560208201518160010190805190602001906119f5929190611bc4565b50604082015181600201556060820151816003019080519060200190611a1c929190611bc4565b506080820151816004015560a082015181600501559050505050565b50805460018160011615610100020316600290046000825580601f10611a5e5750611a7d565b601f016020900490600052602060002090810190611a7c9190611c44565b5b50565b828054600181600116156101000203166002900490600052602060002090601f016020900481019282601f10611ab95780548555611af6565b82800160010185558215611af657600052602060002091601f016020900482015b82811115611af5578254825591600101919060010190611ada565b5b509050611b039190611c44565b5090565b828054600181600116156101000203166002900490600052602060002090601f016020900481019282601f10611b405780548555611b7d565b82800160010185558215611b7d57600052602060002091601f016020900482015b82811115611b7c578254825591600101919060010190611b61565b5b509050611b8a9190611c44565b5090565b6040518060c001604052806000815260200160608152602001600081526020016060815260200160008152602001600081525090565b828054600181600116156101000203166002900490600052602060002090601f016020900481019282601f10611c0557805160ff1916838001178555611c33565b82800160010185558215611c33579182015b82811115611c32578251825591602001919060010190611c17565b5b509050611c409190611c44565b5090565b611c6691905b80821115611c62576000816000905550600101611c4a565b5090565b9056fea265627a7a723158204daae15932f4aaca646c918ee44051b6abf4fd18d299f1de1ef420bb3b936b7864736f6c634300050c0032",
  "source": "import \"./Ownable.sol\";\npragma solidity 0.5.12;\n\ncontract HodlSodl is Ownable{\n\n      constructor (uint) public payable{\n                  balance = msg.value;\n          }\n\n      Bet     private lastBet;\n      uint    private balance;\n\n      modifier costs(uint cost){\n              require(msg.value >= cost);\n              _;\n          }\n\n      struct Player {\n            uint id;\n            string name;\n            uint age;\n            string email;\n            uint pin;\n            uint repeatPin;\n\n          }\n\n      struct  Bet {\n                  string name;\n                      //defined betting hodl (1) or sodl (2)\n                  uint optionChosen;\n                      //defined running draw()function.\n                  bool win;\n                      //defined in makeBet from draw()function\n                  uint betAmount;\n                      //defined in makeBet msg.sender\n                  address player;\n                      //defined by wins or losses\n                  uint playerBalance;\n              }\n\n      mapping (address => Bet) private betsQueue;\n\n      mapping (address => Player) private gamers;\n\n      function createPlayer(string memory name, uint age, string memory email, uint pin,uint repeatPin) public payable costs(1 ether){\n              require(age < 100, \"Age needs to be below 100\");\n              require(pin == repeatPin, \"repeatPin not equal\");\n              require(msg.value >= 1 ether);\n              balance += msg.value;\n\n                  //This creates a player\n                  Player memory newPlayer;\n                  newPlayer.name = name;\n                  newPlayer.age = age;\n                  newPlayer.email = email;\n\n                  insertPlayer(newPlayer);\n                  //players.push(msg.sender);\n\n                  assert(\n                      keccak256(\n                          abi.encodePacked(\n                              gamers[msg.sender].name,\n                              gamers[msg.sender].age,\n                              gamers[msg.sender].email\n                          )\n                      )\n                      ==\n                      keccak256(\n                          abi.encodePacked(\n                              newPlayer.name,\n                              newPlayer.age,\n                              newPlayer.email\n                          )\n                      )\n                  );\n                  emit playerCreated(newPlayer.name, newPlayer.email);\n          }\n\n      function insertPlayer(Player memory newPlayer) private {\n              address creator = msg.sender;\n              gamers[creator] = newPlayer;\n          }\n\n      function getPlayer() public view returns(string memory name, uint age, string memory email){\n              address creator = msg.sender;\n              return (gamers[creator].name, gamers[creator].age, gamers[creator].email);\n          }\n\n      function deletePlayer(address creator) public onlyOwner {\n              string memory name = gamers[creator].name;\n              string memory email = gamers[creator].email;\n\n              delete gamers[creator];\n              assert(gamers[creator].age == 0);\n              emit playerDeleted(name, email, msg.sender);\n         }\n\n      function withdrawAll() public onlyOwner returns(uint) {\n              uint toTransfer = balance;\n              balance = 0;\n              msg.sender.transfer(toTransfer);\n              return toTransfer;\n         }\n\n      function myLastBet() public view returns(string memory name, bool win, uint optionChosen, uint betAmount){\n              return (\n                      betsQueue[msg.sender].name,\n                      betsQueue[msg.sender].win,\n                      betsQueue[msg.sender].optionChosen,\n                      betsQueue[msg.sender].betAmount\n                  );\n          }\n\n      function myBalance() public view returns(string memory name, uint playerBalance){\n              return (\n                      betsQueue[msg.sender].name,\n                      betsQueue[msg.sender].playerBalance\n                  );\n          }\n\n      function makeBet(uint optionBid) payable public {\n              // check if contract has enough balance\n              require(msg.value <= balance);\n              // set minimum bettable amount\n              require(msg.value >= 0.1 ether);\n              //This creates a lastBet based on Bet struct\n              lastBet.name = gamers[msg.sender].name;\n              lastBet.optionChosen = optionBid;\n              lastBet.betAmount = msg.value;\n              lastBet.player = msg.sender;\n              lastBet.playerBalance = betsQueue[msg.sender].playerBalance;\n\n              draw(optionBid);\n\n              betsQueue[msg.sender] = lastBet;\n\n          }\n\n      function draw(uint optionChosen) private returns(bool){\n              // Generate random data\n              uint randomResult = now % 2;\n              //if win true pay double to player\n              if(randomResult == optionChosen){\n              lastBet.win = true;\n              balance = balance - lastBet.betAmount;\n              lastBet.playerBalance += lastBet.betAmount *2;\n              }\n              //if win false pay betAmount to contract\n              else{\n              lastBet.win = false;\n              balance = balance + lastBet.betAmount;\n              }\n              emit placedBet(lastBet.name,lastBet.player,msg.value,lastBet.win);\n              return lastBet.win;\n\n          }\n\n      function withdrawPlayer() public returns(uint) {\n              uint toTransfer = betsQueue[msg.sender].playerBalance;\n              betsQueue[msg.sender].playerBalance = 0;\n              msg.sender.transfer(toTransfer);\n              return toTransfer;\n          }\n\n// eventi\n      event playerCreated(string name, string email);\n      event playerDeleted(string name, string email, address deletedBy);\n      event placedBet(string name,address player, uint betAmount, bool win);\n\n  }\n",
  "sourcePath": "/Users/gab/Desktop/Accademy/eth-course-adv/HodlSodl app/contracts/HodlSodl.sol",
  "compiler": {
    "name": "solc",
    "version": "0.5.12+commit.7709ece9.Emscripten.clang"
  },
  "schemaVersion": "3.0.16",
  "updatedAt": "2020-06-04T20:53:13.272Z",
  "devdoc": {
    "methods": {}
  },
  "userdoc": {
    "methods": {}
  }
}