{
  "contractName": "Ownable",
  "abi": [
    {
      "inputs": [],
      "payable": false,
      "stateMutability": "nonpayable",
      "type": "constructor"
    },
    {
      "constant": true,
      "inputs": [],
      "name": "owner",
      "outputs": [
        {
          "internalType": "address",
          "name": "",
          "type": "address"
        }
      ],
      "payable": false,
      "stateMutability": "view",
      "type": "function"
    }
  ],
  "bytecode": "0x608060405234801561001057600080fd5b50336000806101000a81548173ffffffffffffffffffffffffffffffffffffffff021916908373ffffffffffffffffffffffffffffffffffffffff16021790555060cf8061005f6000396000f3fe6080604052348015600f57600080fd5b506004361060285760003560e01c80638da5cb5b14602d575b600080fd5b60336075565b604051808273ffffffffffffffffffffffffffffffffffffffff1673ffffffffffffffffffffffffffffffffffffffff16815260200191505060405180910390f35b6000809054906101000a900473ffffffffffffffffffffffffffffffffffffffff168156fea265627a7a7231582098b5135f2cb473ec3b9f9e33660030f31dce1e02c17630205a632d35cdbb16f864736f6c634300050c0032",
  "source": "\npragma solidity 0.5.12;\n\ncontract Ownable{\n    \n    address public owner;                                       //shows the address of the owner in the public view\n\n    \n    modifier onlyOwner(){                                       //modifier to require that msg.sender is equal to owner\n        require(msg.sender == owner);\n        _;\n    }\n\n    constructor()public{                                        //runs when the contract is created, only once, not manually\n        owner = msg.sender;                                     //set the owner as the msg.sender address\n    }\n\n}",
  "sourcePath": "/Users/gab/Desktop/Accademy/eth-course-adv/HodlSodl app/contracts/Ownable.sol",
  "compiler": {
    "name": "solc",
    "version": "0.5.12+commit.7709ece9.Emscripten.clang"
  },
  "schemaVersion": "3.0.16",
  "updatedAt": "2020-05-22T12:55:15.165Z",
  "devdoc": {
    "methods": {}
  },
  "userdoc": {
    "methods": {}
  }
}